{
  "contractName": "BlackJack",
  "abi": [
    {
      "constant": true,
      "inputs": [
        {
          "name": "",
          "type": "uint256"
        }
      ],
      "name": "DealerHand",
      "outputs": [
        {
          "name": "",
          "type": "string"
        }
      ],
      "payable": false,
      "stateMutability": "view",
      "type": "function"
    },
    {
      "constant": true,
      "inputs": [],
      "name": "count2",
      "outputs": [
        {
          "name": "",
          "type": "uint256"
        }
      ],
      "payable": false,
      "stateMutability": "view",
      "type": "function"
    },
    {
      "constant": true,
      "inputs": [],
      "name": "BlackJackResult",
      "outputs": [
        {
          "name": "",
          "type": "uint256"
        }
      ],
      "payable": false,
      "stateMutability": "view",
      "type": "function"
    },
    {
      "constant": true,
      "inputs": [],
      "name": "countcheck",
      "outputs": [
        {
          "name": "",
          "type": "uint256"
        }
      ],
      "payable": false,
      "stateMutability": "view",
      "type": "function"
    },
    {
      "constant": true,
      "inputs": [],
      "name": "CountDraw",
      "outputs": [
        {
          "name": "",
          "type": "uint256"
        }
      ],
      "payable": false,
      "stateMutability": "view",
      "type": "function"
    },
    {
      "constant": true,
      "inputs": [],
      "name": "random",
      "outputs": [
        {
          "name": "",
          "type": "uint256"
        }
      ],
      "payable": false,
      "stateMutability": "view",
      "type": "function"
    },
    {
      "constant": true,
      "inputs": [],
      "name": "count1",
      "outputs": [
        {
          "name": "",
          "type": "uint256"
        }
      ],
      "payable": false,
      "stateMutability": "view",
      "type": "function"
    },
    {
      "constant": true,
      "inputs": [
        {
          "name": "",
          "type": "uint256"
        }
      ],
      "name": "PlayerHand",
      "outputs": [
        {
          "name": "",
          "type": "string"
        }
      ],
      "payable": false,
      "stateMutability": "view",
      "type": "function"
    },
    {
      "constant": true,
      "inputs": [],
      "name": "PlayerCost",
      "outputs": [
        {
          "name": "",
          "type": "uint256"
        }
      ],
      "payable": false,
      "stateMutability": "view",
      "type": "function"
    },
    {
      "constant": true,
      "inputs": [
        {
          "name": "",
          "type": "uint256"
        }
      ],
      "name": "Cards",
      "outputs": [
        {
          "name": "",
          "type": "string"
        }
      ],
      "payable": false,
      "stateMutability": "view",
      "type": "function"
    },
    {
      "constant": true,
      "inputs": [],
      "name": "DealerCost",
      "outputs": [
        {
          "name": "",
          "type": "uint256"
        }
      ],
      "payable": false,
      "stateMutability": "view",
      "type": "function"
    },
    {
      "constant": false,
      "inputs": [],
      "name": "OverlapCheck",
      "outputs": [],
      "payable": false,
      "stateMutability": "nonpayable",
      "type": "function"
    },
    {
      "constant": false,
      "inputs": [],
      "name": "PlayerDraw",
      "outputs": [],
      "payable": false,
      "stateMutability": "nonpayable",
      "type": "function"
    },
    {
      "constant": false,
      "inputs": [],
      "name": "DealerDraw",
      "outputs": [],
      "payable": false,
      "stateMutability": "nonpayable",
      "type": "function"
    },
    {
      "constant": false,
      "inputs": [],
      "name": "BlackJackStart",
      "outputs": [],
      "payable": false,
      "stateMutability": "nonpayable",
      "type": "function"
    },
    {
      "constant": false,
      "inputs": [],
      "name": "BlackJackDraw",
      "outputs": [],
      "payable": false,
      "stateMutability": "nonpayable",
      "type": "function"
    },
    {
      "constant": false,
      "inputs": [],
      "name": "BlackJackEnd",
      "outputs": [],
      "payable": false,
      "stateMutability": "nonpayable",
      "type": "function"
    },
    {
      "constant": false,
      "inputs": [],
      "name": "BlackJackReset",
      "outputs": [],
      "payable": false,
      "stateMutability": "nonpayable",
      "type": "function"
    }
  ],
  "bytecode": "0x608060405260a06040519081016040528060206040519081016040528060008152508152602001602060405190810160405280600081525081526020016020604051908101604052806000815250815260200160206040519081016040528060008152508152602001602060405190810160405280600081525081525060009060056200008e92919062000d6f565b5060a06040519081016040528060206040519081016040528060008152508152602001602060405190810160405280600081525081526020016020604051908101604052806000815250815260200160206040519081016040528060008152508152602001602060405190810160405280600081525081525060019060056200011992919062000d6f565b50610680604051908101604052806040805190810160405280600681526020017f48206f662032000000000000000000000000000000000000000000000000000081525081526020016040805190810160405280600681526020017f48206f662033000000000000000000000000000000000000000000000000000081525081526020016040805190810160405280600681526020017f48206f662034000000000000000000000000000000000000000000000000000081525081526020016040805190810160405280600681526020017f48206f662035000000000000000000000000000000000000000000000000000081525081526020016040805190810160405280600681526020017f48206f662036000000000000000000000000000000000000000000000000000081525081526020016040805190810160405280600681526020017f48206f662037000000000000000000000000000000000000000000000000000081525081526020016040805190810160405280600681526020017f48206f662038000000000000000000000000000000000000000000000000000081525081526020016040805190810160405280600681526020017f48206f662039000000000000000000000000000000000000000000000000000081525081526020016040805190810160405280600681526020017f43206f662032000000000000000000000000000000000000000000000000000081525081526020016040805190810160405280600681526020017f43206f662033000000000000000000000000000000000000000000000000000081525081526020016040805190810160405280600681526020017f43206f662034000000000000000000000000000000000000000000000000000081525081526020016040805190810160405280600681526020017f43206f662035000000000000000000000000000000000000000000000000000081525081526020016040805190810160405280600681526020017f43206f662036000000000000000000000000000000000000000000000000000081525081526020016040805190810160405280600681526020017f43206f662037000000000000000000000000000000000000000000000000000081525081526020016040805190810160405280600681526020017f43206f662038000000000000000000000000000000000000000000000000000081525081526020016040805190810160405280600681526020017f43206f662039000000000000000000000000000000000000000000000000000081525081526020016040805190810160405280600681526020017f53206f662032000000000000000000000000000000000000000000000000000081525081526020016040805190810160405280600681526020017f53206f662033000000000000000000000000000000000000000000000000000081525081526020016040805190810160405280600681526020017f53206f662034000000000000000000000000000000000000000000000000000081525081526020016040805190810160405280600681526020017f53206f662035000000000000000000000000000000000000000000000000000081525081526020016040805190810160405280600681526020017f53206f662036000000000000000000000000000000000000000000000000000081525081526020016040805190810160405280600681526020017f53206f662037000000000000000000000000000000000000000000000000000081525081526020016040805190810160405280600681526020017f53206f662038000000000000000000000000000000000000000000000000000081525081526020016040805190810160405280600681526020017f53206f662039000000000000000000000000000000000000000000000000000081525081526020016040805190810160405280600681526020017f44206f662032000000000000000000000000000000000000000000000000000081525081526020016040805190810160405280600681526020017f44206f662033000000000000000000000000000000000000000000000000000081525081526020016040805190810160405280600681526020017f44206f662034000000000000000000000000000000000000000000000000000081525081526020016040805190810160405280600681526020017f44206f662035000000000000000000000000000000000000000000000000000081525081526020016040805190810160405280600681526020017f44206f662036000000000000000000000000000000000000000000000000000081525081526020016040805190810160405280600681526020017f44206f662037000000000000000000000000000000000000000000000000000081525081526020016040805190810160405280600681526020017f44206f662038000000000000000000000000000000000000000000000000000081525081526020016040805190810160405280600681526020017f44206f662039000000000000000000000000000000000000000000000000000081525081526020016040805190810160405280600781526020017f44206f662031300000000000000000000000000000000000000000000000000081525081526020016040805190810160405280600681526020017f44206f662051000000000000000000000000000000000000000000000000000081525081526020016040805190810160405280600681526020017f44206f66204a000000000000000000000000000000000000000000000000000081525081526020016040805190810160405280600681526020017f44206f66204b000000000000000000000000000000000000000000000000000081525081526020016040805190810160405280600681526020017f44206f662041000000000000000000000000000000000000000000000000000081525081526020016040805190810160405280600781526020017f48206f662031300000000000000000000000000000000000000000000000000081525081526020016040805190810160405280600681526020017f48206f662051000000000000000000000000000000000000000000000000000081525081526020016040805190810160405280600681526020017f48206f66204a000000000000000000000000000000000000000000000000000081525081526020016040805190810160405280600681526020017f48206f66204b000000000000000000000000000000000000000000000000000081525081526020016040805190810160405280600681526020017f48206f662041000000000000000000000000000000000000000000000000000081525081526020016040805190810160405280600781526020017f43206f662031300000000000000000000000000000000000000000000000000081525081526020016040805190810160405280600681526020017f43206f662051000000000000000000000000000000000000000000000000000081525081526020016040805190810160405280600681526020017f43206f66204a000000000000000000000000000000000000000000000000000081525081526020016040805190810160405280600681526020017f43206f66204b000000000000000000000000000000000000000000000000000081525081526020016040805190810160405280600681526020017f43206f662041000000000000000000000000000000000000000000000000000081525081526020016040805190810160405280600781526020017f53206f662031300000000000000000000000000000000000000000000000000081525081526020016040805190810160405280600681526020017f53206f662051000000000000000000000000000000000000000000000000000081525081526020016040805190810160405280600681526020017f53206f66204a000000000000000000000000000000000000000000000000000081525081526020016040805190810160405280600681526020017f53206f66204b000000000000000000000000000000000000000000000000000081525081526020016040805190810160405280600681526020017f53206f6620410000000000000000000000000000000000000000000000000000815250815250600290603462000d3392919062000dd6565b50600060035560006004556005805560006006556000600755600060085560006009556000600a5534801562000d6857600080fd5b5062000f69565b82805482825590600052602060002090810192821562000dc3579160200282015b8281111562000dc257825182908051906020019062000db192919062000e3d565b509160200191906001019062000d90565b5b50905062000dd2919062000ec4565b5090565b82805482825590600052602060002090810192821562000e2a579160200282015b8281111562000e2957825182908051906020019062000e1892919062000e3d565b509160200191906001019062000df7565b5b50905062000e39919062000ec4565b5090565b828054600181600116156101000203166002900490600052602060002090601f016020900481019282601f1062000e8057805160ff191683800117855562000eb1565b8280016001018555821562000eb1579182015b8281111562000eb057825182559160200191906001019062000e93565b5b50905062000ec0919062000ef5565b5090565b62000ef291905b8082111562000eee576000818162000ee4919062000f1d565b5060010162000ecb565b5090565b90565b62000f1a91905b8082111562000f1657600081600090555060010162000efc565b5090565b90565b50805460018160011615610100020316600290046000825580601f1062000f45575062000f66565b601f01602090049060005260206000209081019062000f65919062000ef5565b5b50565b6113c68062000f796000396000f3fe6080604052600436106100f6576000357c0100000000000000000000000000000000000000000000000000000000900480630658a83d146100fb5780631d63e24d146101af578063361d51b9146101da5780633a7ae77a146101f15780633f18e30a146102085780634372485f1461021f5780634887aa7814610236578063591a59b514610261578063596e53991461028c5780635ec01e4d146102b75780637477f700146102e257806377ae63f01461030d578063829c664d146103c157806389c71b37146103d85780638a48478a146103ef578063add347e71461041a578063d77678ef14610431578063f4b9d424146104e5575b600080fd5b34801561010757600080fd5b506101346004803603602081101561011e57600080fd5b8101908080359060200190929190505050610510565b6040518080602001828103825283818151815260200191508051906020019080838360005b83811015610174578082015181840152602081019050610159565b50505050905090810190601f1680156101a15780820380516001836020036101000a031916815260200191505b509250505060405180910390f35b3480156101bb57600080fd5b506101c46105cb565b6040518082815260200191505060405180910390f35b3480156101e657600080fd5b506101ef6105d1565b005b3480156101fd57600080fd5b50610206610601565b005b34801561021457600080fd5b5061021d6107d8565b005b34801561022b57600080fd5b5061023461092b565b005b34801561024257600080fd5b5061024b61096f565b6040518082815260200191505060405180910390f35b34801561026d57600080fd5b50610276610975565b6040518082815260200191505060405180910390f35b34801561029857600080fd5b506102a161097b565b6040518082815260200191505060405180910390f35b3480156102c357600080fd5b506102cc610981565b6040518082815260200191505060405180910390f35b3480156102ee57600080fd5b506102f7610987565b6040518082815260200191505060405180910390f35b34801561031957600080fd5b506103466004803603602081101561033057600080fd5b810190808035906020019092919050505061098d565b6040518080602001828103825283818151815260200191508051906020019080838360005b8381101561038657808201518184015260208101905061036b565b50505050905090810190601f1680156103b35780820380516001836020036101000a031916815260200191505b509250505060405180910390f35b3480156103cd57600080fd5b506103d6610a48565b005b3480156103e457600080fd5b506103ed610ae5565b005b3480156103fb57600080fd5b50610404610cbc565b6040518082815260200191505060405180910390f35b34801561042657600080fd5b5061042f610cc2565b005b34801561043d57600080fd5b5061046a6004803603602081101561045457600080fd5b81019080803590602001909291905050506110d9565b6040518080602001828103825283818151815260200191508051906020019080838360005b838110156104aa57808201518184015260208101905061048f565b50505050905090810190601f1680156104d75780820380516001836020036101000a031916815260200191505b509250505060405180910390f35b3480156104f157600080fd5b506104fa611194565b6040518082815260200191505060405180910390f35b60018181548110151561051f57fe5b906000526020600020016000915090508054600181600116156101000203166002900480601f0160208091040260200160405190810160405280929190818152602001828054600181600116156101000203166002900480156105c35780601f10610598576101008083540402835291602001916105c3565b820191906000526020600020905b8154815290600101906020018083116105a657829003601f168201915b505050505081565b60075481565b60156003541015156105e257600080fd5b6105ea610ae5565b600f6004541115156105ff576105fe610601565b5b565b60344233600854604051602001808481526020018373ffffffffffffffffffffffffffffffffffffffff1673ffffffffffffffffffffffffffffffffffffffff166c010000000000000000000000000281526014018281526020019350505050604051602081830303815290604052805190602001206001900481151561068457fe5b06600981905550610693610cc2565b60026009548154811015156106a457fe5b9060005260206000200160016007548154811015156106bf57fe5b9060005260206000200190805460018160011615610100020316600290046106e892919061119a565b506009546000111580156106fe57506008600954105b1561071857600260095460045401016004819055506107b2565b600954600710801561072c57506010600954105b1561074657600660095460045401036004819055506107b1565b600954600f10801561075a57506018600954105b1561077457600e60095460045401036004819055506107b0565b600954601710801561078857506020600954105b156107a257601660095460045401036004819055506107af565b600a600454016004819055505b5b5b5b600760008154809291906001019190505550600860008154809291906001019190505550565b600060038190555060006004819055506000600681905550600060078190555060006008819055506000600a81905550600060098190555060a0604051908101604052806020604051908101604052806000815250815260200160206040519081016040528060008152508152602001602060405190810160405280600081525081526020016020604051908101604052806000815250815260200160206040519081016040528060008152508152506000906005610898929190611221565b5060a0604051908101604052806020604051908101604052806000815250815260200160206040519081016040528060008152508152602001602060405190810160405280600081525081526020016020604051908101604052806000815250815260200160206040519081016040528060008152508152506001906005610921929190611221565b5060058081905550565b600060035414151561093c57600080fd5b600060045414151561094d57600080fd5b610955610ae5565b61095d610601565b610965610ae5565b61096d610601565b565b60055481565b600a5481565b60085481565b60095481565b60065481565b60008181548110151561099c57fe5b906000526020600020016000915090508054600181600116156101000203166002900480601f016020809104026020016040519081016040528092919081815260200182805460018160011615610100020316600290048015610a405780601f10610a1557610100808354040283529160200191610a40565b820191906000526020600020905b815481529060010190602001808311610a2357829003601f168201915b505050505081565b60058054141515610a5857600080fd5b600f600454111515610a6d57610a6c610601565b5b6004546003541115610a9b5760156003541115610a91576000600581905550610a9a565b60016005819055505b5b600454600354111515610ae35760156004541115610ad95760156003541115610acb576000600581905550610ad4565b60016005819055505b610ae2565b60006005819055505b5b565b60344233600854604051602001808481526020018373ffffffffffffffffffffffffffffffffffffffff1673ffffffffffffffffffffffffffffffffffffffff166c0100000000000000000000000002815260140182815260200193505050506040516020818303038152906040528051906020012060019004811515610b6857fe5b06600981905550610b77610cc2565b6002600954815481101515610b8857fe5b906000526020600020016000600654815481101515610ba357fe5b906000526020600020019080546001816001161561010002031660029004610bcc92919061119a565b50600954600011158015610be257506008600954105b15610bfc5760026009546003540101600381905550610c96565b6009546007108015610c1057506010600954105b15610c2a5760066009546003540103600381905550610c95565b600954600f108015610c3e57506018600954105b15610c5857600e6009546003540103600381905550610c94565b6009546017108015610c6c57506020600954105b15610c865760166009546003540103600381905550610c93565b600a600354016003819055505b5b5b5b600660008154809291906001019190505550600860008154809291906001019190505550565b60035481565b5b6001156110d7576000600a541415156110a85760008090505b600a548110156110a6576002600954815481101515610cf757fe5b906000526020600020016040516020018080602001828103825283818154600181600116156101000203166002900481526020019150805460018160011615610100020316600290048015610d8d5780601f10610d6257610100808354040283529160200191610d8d565b820191906000526020600020905b815481529060010190602001808311610d7057829003601f168201915b50509250505060405160208183030381529060405280519060200120600082815481101515610db857fe5b906000526020600020016040516020018080602001828103825283818154600181600116156101000203166002900481526020019150805460018160011615610100020316600290048015610e4e5780601f10610e2357610100808354040283529160200191610e4e565b820191906000526020600020905b815481529060010190602001808311610e3157829003601f168201915b505092505050604051602081830303815290604052805190602001201480610ff757506002600954815481101515610e8257fe5b906000526020600020016040516020018080602001828103825283818154600181600116156101000203166002900481526020019150805460018160011615610100020316600290048015610f185780601f10610eed57610100808354040283529160200191610f18565b820191906000526020600020905b815481529060010190602001808311610efb57829003601f168201915b50509250505060405160208183030381529060405280519060200120600182815481101515610f4357fe5b906000526020600020016040516020018080602001828103825283818154600181600116156101000203166002900481526020019150805460018160011615610100020316600290048015610fd95780601f10610fae57610100808354040283529160200191610fd9565b820191906000526020600020905b815481529060010190602001808311610fbc57829003601f168201915b50509250505060405160208183030381529060405280519060200120145b156110995760344233600854604051602001808481526020018373ffffffffffffffffffffffffffffffffffffffff1673ffffffffffffffffffffffffffffffffffffffff166c010000000000000000000000000281526014018281526020019350505050604051602081830303815290604052805190602001206001900481151561107f57fe5b066009819055506008600081548092919060010191905055505b8080600101915050610cdc565b505b600a600081548092919060010191905055506004600a5414156110d2576000600a819055506110d7565b610cc3565b565b6002818154811015156110e857fe5b906000526020600020016000915090508054600181600116156101000203166002900480601f01602080910402602001604051908101604052809291908181526020018280546001816001161561010002031660029004801561118c5780601f106111615761010080835404028352916020019161118c565b820191906000526020600020905b81548152906001019060200180831161116f57829003601f168201915b505050505081565b60045481565b828054600181600116156101000203166002900490600052602060002090601f016020900481019282601f106111d35780548555611210565b8280016001018555821561121057600052602060002091601f016020900482015b8281111561120f5782548255916001019190600101906111f4565b5b50905061121d9190611281565b5090565b828054828255906000526020600020908101928215611270579160200282015b8281111561126f57825182908051906020019061125f9291906112a6565b5091602001919060010190611241565b5b50905061127d9190611326565b5090565b6112a391905b8082111561129f576000816000905550600101611287565b5090565b90565b828054600181600116156101000203166002900490600052602060002090601f016020900481019282601f106112e757805160ff1916838001178555611315565b82800160010185558215611315579182015b828111156113145782518255916020019190600101906112f9565b5b5090506113229190611281565b5090565b61134f91905b8082111561134b57600081816113429190611352565b5060010161132c565b5090565b90565b50805460018160011615610100020316600290046000825580601f106113785750611397565b601f0160209004906000526020600020908101906113969190611281565b5b5056fea165627a7a723058209e808dfe85db8a93679717dff1181a7cc992596c4f7aee4f67bad3dccb30d2f70029",
  "source": "pragma solidity >=0.5.0 <0.6.0;\r\n\r\ncontract BlackJack {\r\n    string[] public PlayerHand = [\"\", \"\", \"\", \"\", \"\"];\r\n    string[] public DealerHand = [\"\", \"\", \"\", \"\", \"\"];\r\n    string[] public Cards = [\"H of 2\", \"H of 3\", \"H of 4\", \"H of 5\", \"H of 6\", \"H of 7\", \"H of 8\" , \"H of 9\", \"C of 2\", \"C of 3\", \"C of 4\", \"C of 5\", \"C of 6\", \"C of 7\", \"C of 8\", \"C of 9\", \"S of 2\", \"S of 3\", \"S of 4\", \"S of 5\", \"S of 6\", \"S of 7\", \"S of 8\", \"S of 9\", \"D of 2\", \"D of 3\", \"D of 4\", \"D of 5\", \"D of 6\", \"D of 7\", \"D of 8\", \"D of 9\", \"D of 10\", \"D of Q\", \"D of J\", \"D of K\", \"D of A\",  \"H of 10\", \"H of Q\", \"H of J\", \"H of K\", \"H of A\", \"C of 10\", \"C of Q\", \"C of J\", \"C of K\", \"C of A\", \"S of 10\", \"S of Q\", \"S of J\", \"S of K\", \"S of A\"];\r\n    uint256 public PlayerCost = 0;\r\n    uint256 public DealerCost = 0;\r\n    uint256 public BlackJackResult = 5;\r\n    uint256 public count1 = 0;\r\n    uint256 public count2 = 0;\r\n    uint256 public CountDraw = 0;\r\n    uint256 public random = 0;\r\n    uint256 public countcheck = 0;\r\n\r\n    function OverlapCheck() public {\r\n         while(true) {\r\n            if(countcheck != 0) {\r\n                for(uint i = 0; i < countcheck; i++) {\r\n                    if(keccak256(abi.encode(PlayerHand[i])) == keccak256(abi.encode(Cards[random])) || keccak256(abi.encode(DealerHand[i])) == keccak256(abi.encode(Cards[random]))){\r\n                        random = uint(keccak256(abi.encodePacked(now, msg.sender, CountDraw))) % 52;\r\n                        CountDraw++;\r\n                    }\r\n                }\r\n            }\r\n            countcheck++;\r\n            if(countcheck == 4) {\r\n                 countcheck = 0;\r\n                 break;\r\n            }\r\n        }\r\n    }\r\n\r\n    function PlayerDraw() public {\r\n        random = uint(keccak256(abi.encodePacked(now, msg.sender, CountDraw))) % 52;\r\n        OverlapCheck(); \r\n        PlayerHand[count1] = Cards[random];\r\n        \r\n        if(0 <= random && random < 8) PlayerCost = PlayerCost + random + 2;\r\n        else if(7 < random && random < 16) PlayerCost = PlayerCost + random - 6;\r\n        else if(15 < random && random < 24) PlayerCost = PlayerCost + random - 14;\r\n        else if(23 < random && random < 32) PlayerCost = PlayerCost + random - 22;\r\n        else PlayerCost = PlayerCost + 10;\r\n        count1++;\r\n        CountDraw++;\r\n    }\r\n\r\n    function DealerDraw() public {\r\n        random = uint(keccak256(abi.encodePacked(now, msg.sender, CountDraw))) % 52;\r\n        OverlapCheck();\r\n        DealerHand[count2] = Cards[random];\r\n        \r\n        if(0 <= random && random < 8) DealerCost = DealerCost + random + 2;\r\n        else if(7 < random && random < 16) DealerCost = DealerCost + random - 6;\r\n        else if(15 < random && random < 24) DealerCost = DealerCost + random - 14;\r\n        else if(23 < random && random < 32) DealerCost = DealerCost + random - 22;\r\n        else DealerCost = DealerCost + 10;\r\n        count2++;\r\n        CountDraw++;\r\n    }\r\n\r\n    function BlackJackStart() public {\r\n        require(PlayerCost == 0);\r\n        require(DealerCost == 0);\r\n        PlayerDraw();\r\n        DealerDraw();\r\n        PlayerDraw();\r\n        DealerDraw();\r\n    }\r\n\r\n    function BlackJackDraw() public {\r\n        require(PlayerCost < 21);\r\n        PlayerDraw();\r\n        if(DealerCost <= 15) DealerDraw();\r\n    }\r\n\r\n    function BlackJackEnd() public {\r\n        require(BlackJackResult == 5);\r\n        if(DealerCost <= 15) DealerDraw();\r\n        if(PlayerCost > DealerCost) {\r\n            if(PlayerCost > 21) BlackJackResult = 0;\r\n            else BlackJackResult = 1;\r\n        }\r\n\r\n        if(PlayerCost <= DealerCost) {\r\n            if(DealerCost > 21) {\r\n                if(PlayerCost > 21) BlackJackResult = 0;\r\n                else BlackJackResult = 1;\r\n            }\r\n            else BlackJackResult = 0;\r\n        }\r\n    }\r\n\r\n    function BlackJackReset() public {\r\n        PlayerCost = 0;\r\n        DealerCost = 0;\r\n        count1 = 0;\r\n        count2 = 0;\r\n        CountDraw = 0;\r\n        countcheck = 0;\r\n        random = 0;\r\n        PlayerHand = [\"\", \"\", \"\", \"\", \"\"];\r\n        DealerHand = [\"\", \"\", \"\", \"\", \"\"];\r\n        BlackJackResult = 5;\r\n    }\r\n}",
  "sourcePath": "C:\\Users\\class3\\Desktop\\Tie-Draw\\contracts\\BlackJack.sol",
  "compiler": {
    "name": "solc",
    "version": "0.5.1+commit.c8a2cb62.Emscripten.clang"
  },
  "schemaVersion": "3.0.12",
  "updatedAt": "2019-09-30T02:18:12.806Z",
  "devdoc": {
    "methods": {}
  },
  "userdoc": {
    "methods": {}
  }
}