{
  "contractName": "Dice",
  "abi": [
    {
      "constant": true,
      "inputs": [],
      "name": "DiceComNum1",
      "outputs": [
        {
          "name": "",
          "type": "uint256"
        }
      ],
      "payable": false,
      "stateMutability": "view",
      "type": "function"
    },
    {
      "constant": true,
      "inputs": [],
      "name": "DiceMyNum2",
      "outputs": [
        {
          "name": "",
          "type": "uint256"
        }
      ],
      "payable": false,
      "stateMutability": "view",
      "type": "function"
    },
    {
      "constant": true,
      "inputs": [],
      "name": "DiceResult",
      "outputs": [
        {
          "name": "",
          "type": "uint256"
        }
      ],
      "payable": false,
      "stateMutability": "view",
      "type": "function"
    },
    {
      "constant": false,
      "inputs": [
        {
          "name": "number",
          "type": "uint256"
        }
      ],
      "name": "DiceGameStart",
      "outputs": [],
      "payable": false,
      "stateMutability": "nonpayable",
      "type": "function"
    }
  ],
  "bytecode": "0x6080604052600560005534801561001557600080fd5b50610239806100256000396000f3fe60806040526004361061005c576000357c0100000000000000000000000000000000000000000000000000000000900480633e0e4fce1461006157806367dba88d1461008c5780637807080d146100c7578063ece7026e146100f2575b600080fd5b34801561006d57600080fd5b5061007661011d565b6040518082815260200191505060405180910390f35b34801561009857600080fd5b506100c5600480360360208110156100af57600080fd5b8101908080359060200190929190505050610123565b005b3480156100d357600080fd5b506100dc610201565b6040518082815260200191505060405180910390f35b3480156100fe57600080fd5b50610107610207565b6040518082815260200191505060405180910390f35b60015481565b600080905060006006423384604051602001808481526020018373ffffffffffffffffffffffffffffffffffffffff1673ffffffffffffffffffffffffffffffffffffffff166c01000000000000000000000000028152601401828152602001935050505060405160208183030381529060405280519060200120600190048115156101ab57fe5b069050600181019050806001819055508260028190555060025460015414156101f457600660025414156101e65760026000819055506101ef565b60016000819055505b6101fc565b600080819055505b505050565b60025481565b6000548156fea165627a7a72305820c3bc21047af5c3c1de9d8265b93205e6f4ec5dee8104913966e6477f1c2ac43c0029",
  "source": "pragma solidity >=0.5.0 <0.6.0;\r\n\r\ncontract Dice {\r\n    uint public DiceResult = 5;\r\n    uint public DiceComNum1;\r\n    uint public DiceMyNum2;\r\n\r\n    // 숫자가 같으면 이기는데(DiceResult = 1) 숫자가 다르면 짐 (DiceResult = 0) \r\n    // 만약 6으로 같으면 더 큰 이득 (DiceResult = 2)\r\n    function DiceGameStart(uint number) public {\r\n        uint i = 0;\r\n        uint randNum = uint(keccak256(abi.encodePacked(now, msg.sender, i))) % 6;\r\n        randNum = randNum + 1;\r\n        DiceComNum1 = randNum;\r\n        DiceMyNum2 = number;\r\n    \r\n        if (DiceComNum1 == DiceMyNum2) {\r\n            if (DiceMyNum2 == 6) DiceResult = 2;\r\n            else DiceResult = 1;\r\n        }\r\n        else DiceResult = 0;\r\n    }\r\n}",
  "sourcePath": "C:\\Users\\class3\\Desktop\\Tie-Draw\\contracts\\Dice.sol",
  "compiler": {
    "name": "solc",
    "version": "0.5.1+commit.c8a2cb62.Emscripten.clang"
  },
  "schemaVersion": "3.0.12",
  "updatedAt": "2019-09-30T02:18:12.813Z",
  "devdoc": {
    "methods": {}
  },
  "userdoc": {
    "methods": {}
  }
}