{
  "contractName": "DiceToken",
  "abi": [
    {
      "constant": true,
      "inputs": [],
      "name": "name",
      "outputs": [
        {
          "name": "",
          "type": "string"
        }
      ],
      "payable": false,
      "stateMutability": "view",
      "type": "function"
    },
    {
      "constant": true,
      "inputs": [],
      "name": "num2",
      "outputs": [
        {
          "name": "",
          "type": "uint256"
        }
      ],
      "payable": false,
      "stateMutability": "view",
      "type": "function"
    },
    {
      "constant": true,
      "inputs": [],
      "name": "totalSupply",
      "outputs": [
        {
          "name": "",
          "type": "uint256"
        }
      ],
      "payable": false,
      "stateMutability": "view",
      "type": "function"
    },
    {
      "constant": true,
      "inputs": [],
      "name": "num1",
      "outputs": [
        {
          "name": "",
          "type": "uint256"
        }
      ],
      "payable": false,
      "stateMutability": "view",
      "type": "function"
    },
    {
      "constant": true,
      "inputs": [],
      "name": "player",
      "outputs": [
        {
          "name": "",
          "type": "address"
        }
      ],
      "payable": false,
      "stateMutability": "view",
      "type": "function"
    },
    {
      "constant": true,
      "inputs": [],
      "name": "result",
      "outputs": [
        {
          "name": "",
          "type": "uint256"
        }
      ],
      "payable": false,
      "stateMutability": "view",
      "type": "function"
    },
    {
      "constant": true,
      "inputs": [],
      "name": "symbol",
      "outputs": [
        {
          "name": "",
          "type": "string"
        }
      ],
      "payable": false,
      "stateMutability": "view",
      "type": "function"
    },
    {
      "constant": true,
      "inputs": [],
      "name": "betAmount",
      "outputs": [
        {
          "name": "",
          "type": "uint256"
        }
      ],
      "payable": false,
      "stateMutability": "view",
      "type": "function"
    },
    {
      "constant": true,
      "inputs": [],
      "name": "gameContract",
      "outputs": [
        {
          "name": "",
          "type": "address"
        }
      ],
      "payable": false,
      "stateMutability": "view",
      "type": "function"
    },
    {
      "anonymous": false,
      "inputs": [
        {
          "indexed": true,
          "name": "from",
          "type": "address"
        },
        {
          "indexed": true,
          "name": "to",
          "type": "address"
        },
        {
          "indexed": false,
          "name": "value",
          "type": "uint256"
        }
      ],
      "name": "Transfered",
      "type": "event"
    },
    {
      "constant": false,
      "inputs": [],
      "name": "Token",
      "outputs": [],
      "payable": false,
      "stateMutability": "nonpayable",
      "type": "function"
    },
    {
      "constant": false,
      "inputs": [
        {
          "name": "_gameContract",
          "type": "address"
        }
      ],
      "name": "setContAddr",
      "outputs": [],
      "payable": false,
      "stateMutability": "nonpayable",
      "type": "function"
    },
    {
      "constant": false,
      "inputs": [
        {
          "name": "amount",
          "type": "uint256"
        }
      ],
      "name": "adminSend",
      "outputs": [
        {
          "name": "",
          "type": "bool"
        }
      ],
      "payable": false,
      "stateMutability": "nonpayable",
      "type": "function"
    },
    {
      "constant": false,
      "inputs": [
        {
          "name": "_player",
          "type": "address"
        }
      ],
      "name": "login",
      "outputs": [],
      "payable": false,
      "stateMutability": "nonpayable",
      "type": "function"
    },
    {
      "constant": true,
      "inputs": [
        {
          "name": "account",
          "type": "address"
        }
      ],
      "name": "balanceOf",
      "outputs": [
        {
          "name": "balance",
          "type": "uint256"
        }
      ],
      "payable": false,
      "stateMutability": "view",
      "type": "function"
    },
    {
      "constant": false,
      "inputs": [],
      "name": "getTokens",
      "outputs": [
        {
          "name": "",
          "type": "bool"
        }
      ],
      "payable": false,
      "stateMutability": "nonpayable",
      "type": "function"
    },
    {
      "constant": false,
      "inputs": [
        {
          "name": "_betAmount",
          "type": "uint256"
        }
      ],
      "name": "betting",
      "outputs": [
        {
          "name": "",
          "type": "bool"
        }
      ],
      "payable": false,
      "stateMutability": "nonpayable",
      "type": "function"
    },
    {
      "constant": false,
      "inputs": [],
      "name": "reward",
      "outputs": [
        {
          "name": "",
          "type": "bool"
        }
      ],
      "payable": false,
      "stateMutability": "nonpayable",
      "type": "function"
    },
    {
      "constant": false,
      "inputs": [
        {
          "name": "recipient",
          "type": "address"
        },
        {
          "name": "amount",
          "type": "uint256"
        }
      ],
      "name": "transfer",
      "outputs": [
        {
          "name": "",
          "type": "bool"
        }
      ],
      "payable": false,
      "stateMutability": "nonpayable",
      "type": "function"
    },
    {
      "constant": true,
      "inputs": [
        {
          "name": "owner",
          "type": "address"
        },
        {
          "name": "spender",
          "type": "address"
        }
      ],
      "name": "allowance",
      "outputs": [
        {
          "name": "",
          "type": "uint256"
        }
      ],
      "payable": false,
      "stateMutability": "view",
      "type": "function"
    },
    {
      "constant": false,
      "inputs": [
        {
          "name": "sender",
          "type": "address"
        },
        {
          "name": "recipient",
          "type": "address"
        },
        {
          "name": "amount",
          "type": "uint256"
        }
      ],
      "name": "transferFrom",
      "outputs": [
        {
          "name": "",
          "type": "bool"
        }
      ],
      "payable": false,
      "stateMutability": "nonpayable",
      "type": "function"
    },
    {
      "constant": false,
      "inputs": [
        {
          "name": "spender",
          "type": "address"
        },
        {
          "name": "amount",
          "type": "uint256"
        }
      ],
      "name": "approve",
      "outputs": [
        {
          "name": "",
          "type": "bool"
        }
      ],
      "payable": false,
      "stateMutability": "nonpayable",
      "type": "function"
    }
  ],
  "bytecode": "0x60806040526040805190810160405280601181526020017f47616d626c65204368697020546f6b656e000000000000000000000000000000815250600090805190602001906200005192919062000188565b506040805190810160405280600481526020017f4348495000000000000000000000000000000000000000000000000000000000815250600190805190602001906200009f92919062000188565b5064e8d4a5100060025560006003556000600760006101000a81548173ffffffffffffffffffffffffffffffffffffffff021916908373ffffffffffffffffffffffffffffffffffffffff1602179055506000600860006101000a81548173ffffffffffffffffffffffffffffffffffffffff021916908373ffffffffffffffffffffffffffffffffffffffff1602179055506000600960006101000a81548173ffffffffffffffffffffffffffffffffffffffff021916908373ffffffffffffffffffffffffffffffffffffffff1602179055503480156200018157600080fd5b5062000237565b828054600181600116156101000203166002900490600052602060002090601f016020900481019282601f10620001cb57805160ff1916838001178555620001fc565b82800160010185558215620001fc579182015b82811115620001fb578251825591602001919060010190620001de565b5b5090506200020b91906200020f565b5090565b6200023491905b808211156200023057600081600090555060010162000216565b5090565b90565b61207880620002476000396000f3fe608060405260043610610117576000357c01000000000000000000000000000000000000000000000000000000009004806306fdde031461011c578063095ea7b3146101ac57806315d4266c1461021f57806318160ddd1461024a578063228cb7331461027557806323b872dd146102a457806335a6861a146103375780633b9eac4b146103885780634111655f146103b357806348db5f8914610406578063653721471461045d5780636b565e131461048857806370a08231146104d957806395d89b411461053e578063a9059cbb146105ce578063aa6ca80814610641578063c241267614610670578063d24257c014610687578063d3f33009146106b2578063dd62ed3e14610709578063eadc56d21461078e575b600080fd5b34801561012857600080fd5b506101316107e1565b6040518080602001828103825283818151815260200191508051906020019080838360005b83811015610171578082015181840152602081019050610156565b50505050905090810190601f16801561019e5780820380516001836020036101000a031916815260200191505b509250505060405180910390f35b3480156101b857600080fd5b50610205600480360360408110156101cf57600080fd5b81019080803573ffffffffffffffffffffffffffffffffffffffff1690602001909291908035906020019092919050505061087f565b604051808215151515815260200191505060405180910390f35b34801561022b57600080fd5b5061023461090c565b6040518082815260200191505060405180910390f35b34801561025657600080fd5b5061025f610912565b6040518082815260200191505060405180910390f35b34801561028157600080fd5b5061028a610918565b604051808215151515815260200191505060405180910390f35b3480156102b057600080fd5b5061031d600480360360608110156102c757600080fd5b81019080803573ffffffffffffffffffffffffffffffffffffffff169060200190929190803573ffffffffffffffffffffffffffffffffffffffff16906020019092919080359060200190929190505050610d41565b604051808215151515815260200191505060405180910390f35b34801561034357600080fd5b506103866004803603602081101561035a57600080fd5b81019080803573ffffffffffffffffffffffffffffffffffffffff16906020019092919050505061109b565b005b34801561039457600080fd5b5061039d61113d565b6040518082815260200191505060405180910390f35b3480156103bf57600080fd5b506103ec600480360360208110156103d657600080fd5b8101908080359060200190929190505050611143565b604051808215151515815260200191505060405180910390f35b34801561041257600080fd5b5061041b6113fc565b604051808273ffffffffffffffffffffffffffffffffffffffff1673ffffffffffffffffffffffffffffffffffffffff16815260200191505060405180910390f35b34801561046957600080fd5b50610472611422565b6040518082815260200191505060405180910390f35b34801561049457600080fd5b506104d7600480360360208110156104ab57600080fd5b81019080803573ffffffffffffffffffffffffffffffffffffffff169060200190929190505050611428565b005b3480156104e557600080fd5b50610528600480360360208110156104fc57600080fd5b81019080803573ffffffffffffffffffffffffffffffffffffffff1690602001909291905050506114c8565b6040518082815260200191505060405180910390f35b34801561054a57600080fd5b50610553611511565b6040518080602001828103825283818151815260200191508051906020019080838360005b83811015610593578082015181840152602081019050610578565b50505050905090810190601f1680156105c05780820380516001836020036101000a031916815260200191505b509250505060405180910390f35b3480156105da57600080fd5b50610627600480360360408110156105f157600080fd5b81019080803573ffffffffffffffffffffffffffffffffffffffff169060200190929190803590602001909291905050506115af565b604051808215151515815260200191505060405180910390f35b34801561064d57600080fd5b506106566117d3565b604051808215151515815260200191505060405180910390f35b34801561067c57600080fd5b50610685611aec565b005b34801561069357600080fd5b5061069c611bde565b6040518082815260200191505060405180910390f35b3480156106be57600080fd5b506106c7611be4565b604051808273ffffffffffffffffffffffffffffffffffffffff1673ffffffffffffffffffffffffffffffffffffffff16815260200191505060405180910390f35b34801561071557600080fd5b506107786004803603604081101561072c57600080fd5b81019080803573ffffffffffffffffffffffffffffffffffffffff169060200190929190803573ffffffffffffffffffffffffffffffffffffffff169060200190929190505050611c0a565b6040518082815260200191505060405180910390f35b34801561079a57600080fd5b506107c7600480360360208110156107b157600080fd5b8101908080359060200190929190505050611c91565b604051808215151515815260200191505060405180910390f35b60008054600181600116156101000203166002900480601f0160208091040260200160405190810160405280929190818152602001828054600181600116156101000203166002900480156108775780601f1061084c57610100808354040283529160200191610877565b820191906000526020600020905b81548152906001019060200180831161085a57829003601f168201915b505050505081565b600081600b60003373ffffffffffffffffffffffffffffffffffffffff1673ffffffffffffffffffffffffffffffffffffffff16815260200190815260200160002060008573ffffffffffffffffffffffffffffffffffffffff1673ffffffffffffffffffffffffffffffffffffffff168152602001908152602001600020819055506001905092915050565b60055481565b60025481565b6000600960009054906101000a900473ffffffffffffffffffffffffffffffffffffffff1673ffffffffffffffffffffffffffffffffffffffff163373ffffffffffffffffffffffffffffffffffffffff1614151561097657600080fd5b60006003541415151561098857600080fd5b600080600090505b6002811015610a605760006006423384604051602001808481526020018373ffffffffffffffffffffffffffffffffffffffff1673ffffffffffffffffffffffffffffffffffffffff166c0100000000000000000000000002815260140182815260200193505050506040516020818303038152906040528051906020012060019004811515610a1c57fe5b069050610a33600182611fda90919063ffffffff16565b90506000821415610a4a5780600481905550610a52565b806005819055505b508080600101915050610990565b506005546004541415610ac35760066004541415610a9d576002600681905550610a96600a600354611ff890919063ffffffff16565b9050610abe565b6001600681905550610abb6005600354611ff890919063ffffffff16565b90505b610acc565b60006006819055505b80600a6000600860009054906101000a900473ffffffffffffffffffffffffffffffffffffffff1673ffffffffffffffffffffffffffffffffffffffff1673ffffffffffffffffffffffffffffffffffffffff1681526020019081526020016000205410151515610b3c57600080fd5b610bb081600a6000600860009054906101000a900473ffffffffffffffffffffffffffffffffffffffff1673ffffffffffffffffffffffffffffffffffffffff1673ffffffffffffffffffffffffffffffffffffffff1681526020019081526020016000205461203390919063ffffffff16565b600a6000600860009054906101000a900473ffffffffffffffffffffffffffffffffffffffff1673ffffffffffffffffffffffffffffffffffffffff1673ffffffffffffffffffffffffffffffffffffffff16815260200190815260200160002081905550610c6781600a60003373ffffffffffffffffffffffffffffffffffffffff1673ffffffffffffffffffffffffffffffffffffffff16815260200190815260200160002054611fda90919063ffffffff16565b600a60003373ffffffffffffffffffffffffffffffffffffffff1673ffffffffffffffffffffffffffffffffffffffff168152602001908152602001600020819055503373ffffffffffffffffffffffffffffffffffffffff16600860009054906101000a900473ffffffffffffffffffffffffffffffffffffffff1673ffffffffffffffffffffffffffffffffffffffff167f8930ac7bcb101f94c05b13845098ae74383bfb9e348e73061b730040945cbb82836040518082815260200191505060405180910390a36000600381905550600191505090565b60008073ffffffffffffffffffffffffffffffffffffffff168373ffffffffffffffffffffffffffffffffffffffff1614151515610d7e57600080fd5b600a60008573ffffffffffffffffffffffffffffffffffffffff1673ffffffffffffffffffffffffffffffffffffffff168152602001908152602001600020548211151515610dcc57600080fd5b600b60008573ffffffffffffffffffffffffffffffffffffffff1673ffffffffffffffffffffffffffffffffffffffff16815260200190815260200160002060003373ffffffffffffffffffffffffffffffffffffffff1673ffffffffffffffffffffffffffffffffffffffff168152602001908152602001600020548211151515610e5757600080fd5b610ea982600a60008773ffffffffffffffffffffffffffffffffffffffff1673ffffffffffffffffffffffffffffffffffffffff1681526020019081526020016000205461203390919063ffffffff16565b600a60008673ffffffffffffffffffffffffffffffffffffffff1673ffffffffffffffffffffffffffffffffffffffff16815260200190815260200160002081905550610f3e82600a60008673ffffffffffffffffffffffffffffffffffffffff1673ffffffffffffffffffffffffffffffffffffffff16815260200190815260200160002054611fda90919063ffffffff16565b600a60008573ffffffffffffffffffffffffffffffffffffffff1673ffffffffffffffffffffffffffffffffffffffff1681526020019081526020016000208190555061101082600b60008773ffffffffffffffffffffffffffffffffffffffff1673ffffffffffffffffffffffffffffffffffffffff16815260200190815260200160002060003373ffffffffffffffffffffffffffffffffffffffff1673ffffffffffffffffffffffffffffffffffffffff1681526020019081526020016000205461203390919063ffffffff16565b600b60008673ffffffffffffffffffffffffffffffffffffffff1673ffffffffffffffffffffffffffffffffffffffff16815260200190815260200160002060003373ffffffffffffffffffffffffffffffffffffffff1673ffffffffffffffffffffffffffffffffffffffff16815260200190815260200160002081905550600190509392505050565b600073ffffffffffffffffffffffffffffffffffffffff16600860009054906101000a900473ffffffffffffffffffffffffffffffffffffffff1673ffffffffffffffffffffffffffffffffffffffff16141515156110f957600080fd5b80600960006101000a81548173ffffffffffffffffffffffffffffffffffffffff021916908373ffffffffffffffffffffffffffffffffffffffff16021790555050565b60045481565b6000600760009054906101000a900473ffffffffffffffffffffffffffffffffffffffff1673ffffffffffffffffffffffffffffffffffffffff163373ffffffffffffffffffffffffffffffffffffffff161415156111a157600080fd5b81600a60003373ffffffffffffffffffffffffffffffffffffffff1673ffffffffffffffffffffffffffffffffffffffff16815260200190815260200160002054101515156111ef57600080fd5b6000821115156111fe57600080fd5b61125082600a60003373ffffffffffffffffffffffffffffffffffffffff1673ffffffffffffffffffffffffffffffffffffffff1681526020019081526020016000205461203390919063ffffffff16565b600a60003373ffffffffffffffffffffffffffffffffffffffff1673ffffffffffffffffffffffffffffffffffffffff1681526020019081526020016000208190555061130782600a6000600860009054906101000a900473ffffffffffffffffffffffffffffffffffffffff1673ffffffffffffffffffffffffffffffffffffffff1673ffffffffffffffffffffffffffffffffffffffff16815260200190815260200160002054611fda90919063ffffffff16565b600a6000600860009054906101000a900473ffffffffffffffffffffffffffffffffffffffff1673ffffffffffffffffffffffffffffffffffffffff1673ffffffffffffffffffffffffffffffffffffffff16815260200190815260200160002081905550600860009054906101000a900473ffffffffffffffffffffffffffffffffffffffff1673ffffffffffffffffffffffffffffffffffffffff163373ffffffffffffffffffffffffffffffffffffffff167f8930ac7bcb101f94c05b13845098ae74383bfb9e348e73061b730040945cbb82846040518082815260200191505060405180910390a360019050919050565b600960009054906101000a900473ffffffffffffffffffffffffffffffffffffffff1681565b60065481565b600760009054906101000a900473ffffffffffffffffffffffffffffffffffffffff1673ffffffffffffffffffffffffffffffffffffffff163373ffffffffffffffffffffffffffffffffffffffff1614151561148457600080fd5b80600860006101000a81548173ffffffffffffffffffffffffffffffffffffffff021916908373ffffffffffffffffffffffffffffffffffffffff16021790555050565b6000600a60008373ffffffffffffffffffffffffffffffffffffffff1673ffffffffffffffffffffffffffffffffffffffff168152602001908152602001600020549050919050565b60018054600181600116156101000203166002900480601f0160208091040260200160405190810160405280929190818152602001828054600181600116156101000203166002900480156115a75780601f1061157c576101008083540402835291602001916115a7565b820191906000526020600020905b81548152906001019060200180831161158a57829003601f168201915b505050505081565b60008073ffffffffffffffffffffffffffffffffffffffff168373ffffffffffffffffffffffffffffffffffffffff16141515156115ec57600080fd5b600a60003373ffffffffffffffffffffffffffffffffffffffff1673ffffffffffffffffffffffffffffffffffffffff16815260200190815260200160002054821115151561163a57600080fd5b61168c82600a60003373ffffffffffffffffffffffffffffffffffffffff1673ffffffffffffffffffffffffffffffffffffffff1681526020019081526020016000205461203390919063ffffffff16565b600a60003373ffffffffffffffffffffffffffffffffffffffff1673ffffffffffffffffffffffffffffffffffffffff1681526020019081526020016000208190555061172182600a60008673ffffffffffffffffffffffffffffffffffffffff1673ffffffffffffffffffffffffffffffffffffffff16815260200190815260200160002054611fda90919063ffffffff16565b600a60008573ffffffffffffffffffffffffffffffffffffffff1673ffffffffffffffffffffffffffffffffffffffff168152602001908152602001600020819055508273ffffffffffffffffffffffffffffffffffffffff163373ffffffffffffffffffffffffffffffffffffffff167f8930ac7bcb101f94c05b13845098ae74383bfb9e348e73061b730040945cbb82846040518082815260200191505060405180910390a36001905092915050565b6000600960009054906101000a900473ffffffffffffffffffffffffffffffffffffffff1673ffffffffffffffffffffffffffffffffffffffff163373ffffffffffffffffffffffffffffffffffffffff1614151561183157600080fd5b6000600a60003373ffffffffffffffffffffffffffffffffffffffff1673ffffffffffffffffffffffffffffffffffffffff1681526020019081526020016000205414151561187f57600080fd5b600a806000600860009054906101000a900473ffffffffffffffffffffffffffffffffffffffff1673ffffffffffffffffffffffffffffffffffffffff1673ffffffffffffffffffffffffffffffffffffffff16815260200190815260200160002054101515156118ef57600080fd5b611963600a806000600860009054906101000a900473ffffffffffffffffffffffffffffffffffffffff1673ffffffffffffffffffffffffffffffffffffffff1673ffffffffffffffffffffffffffffffffffffffff1681526020019081526020016000205461203390919063ffffffff16565b600a6000600860009054906101000a900473ffffffffffffffffffffffffffffffffffffffff1673ffffffffffffffffffffffffffffffffffffffff1673ffffffffffffffffffffffffffffffffffffffff16815260200190815260200160002081905550611a1a600a8060003373ffffffffffffffffffffffffffffffffffffffff1673ffffffffffffffffffffffffffffffffffffffff16815260200190815260200160002054611fda90919063ffffffff16565b600a60003373ffffffffffffffffffffffffffffffffffffffff1673ffffffffffffffffffffffffffffffffffffffff168152602001908152602001600020819055503373ffffffffffffffffffffffffffffffffffffffff16600860009054906101000a900473ffffffffffffffffffffffffffffffffffffffff1673ffffffffffffffffffffffffffffffffffffffff167f8930ac7bcb101f94c05b13845098ae74383bfb9e348e73061b730040945cbb82600a6040518082815260200191505060405180910390a36001905090565b600760009054906101000a900473ffffffffffffffffffffffffffffffffffffffff1673ffffffffffffffffffffffffffffffffffffffff163373ffffffffffffffffffffffffffffffffffffffff16141515611b4857600080fd5b6000600a60003373ffffffffffffffffffffffffffffffffffffffff1673ffffffffffffffffffffffffffffffffffffffff16815260200190815260200160002054141515611b9657600080fd5b600254600a60003373ffffffffffffffffffffffffffffffffffffffff1673ffffffffffffffffffffffffffffffffffffffff16815260200190815260200160002081905550565b60035481565b600860009054906101000a900473ffffffffffffffffffffffffffffffffffffffff1681565b6000600b60008473ffffffffffffffffffffffffffffffffffffffff1673ffffffffffffffffffffffffffffffffffffffff16815260200190815260200160002060008373ffffffffffffffffffffffffffffffffffffffff1673ffffffffffffffffffffffffffffffffffffffff16815260200190815260200160002054905092915050565b6000600960009054906101000a900473ffffffffffffffffffffffffffffffffffffffff1673ffffffffffffffffffffffffffffffffffffffff163373ffffffffffffffffffffffffffffffffffffffff16141515611cef57600080fd5b81600a60003373ffffffffffffffffffffffffffffffffffffffff1673ffffffffffffffffffffffffffffffffffffffff1681526020019081526020016000205410151515611d3d57600080fd5b600082111515611d4c57600080fd5b611d60600a83611ff890919063ffffffff16565b600a6000600860009054906101000a900473ffffffffffffffffffffffffffffffffffffffff1673ffffffffffffffffffffffffffffffffffffffff1673ffffffffffffffffffffffffffffffffffffffff1681526020019081526020016000205410151515611dcf57600080fd5b81600381905550611e2a600354600a60003373ffffffffffffffffffffffffffffffffffffffff1673ffffffffffffffffffffffffffffffffffffffff1681526020019081526020016000205461203390919063ffffffff16565b600a60003373ffffffffffffffffffffffffffffffffffffffff1673ffffffffffffffffffffffffffffffffffffffff16815260200190815260200160002081905550611ee3600354600a6000600860009054906101000a900473ffffffffffffffffffffffffffffffffffffffff1673ffffffffffffffffffffffffffffffffffffffff1673ffffffffffffffffffffffffffffffffffffffff16815260200190815260200160002054611fda90919063ffffffff16565b600a6000600860009054906101000a900473ffffffffffffffffffffffffffffffffffffffff1673ffffffffffffffffffffffffffffffffffffffff1673ffffffffffffffffffffffffffffffffffffffff16815260200190815260200160002081905550600860009054906101000a900473ffffffffffffffffffffffffffffffffffffffff1673ffffffffffffffffffffffffffffffffffffffff163373ffffffffffffffffffffffffffffffffffffffff167f8930ac7bcb101f94c05b13845098ae74383bfb9e348e73061b730040945cbb826003546040518082815260200191505060405180910390a360019050919050565b6000808284019050838110151515611fee57fe5b8091505092915050565b60008083141561200b576000905061202d565b6000828402905082848281151561201e57fe5b0414151561202857fe5b809150505b92915050565b600082821115151561204157fe5b81830390509291505056fea165627a7a72305820d6829d9eeb8d0f6c1eae38995cffbe59c78a19ad1be00dd60cbec69c3fdfca970029",
  "source": "pragma solidity >=0.5.0 <0.6.0;\r\n\r\nimport './IERC20.sol';\r\nimport './SafeMath.sol';\r\n\r\ncontract DiceToken is IERC20 {\r\n  using SafeMath for uint256;\r\n\r\n  string public name = 'Gamble Chip Token';\r\n  string public symbol = 'CHIP';\r\n\r\n  uint256 public totalSupply = 1000000000000;\r\n  uint256 public betAmount = 0;\r\n  uint256 public num1;\r\n  uint256 public num2;\r\n  uint256 public result;\r\n\r\n  address private adminAddr = 0x0000000000000000000000000000000000000000;\r\n  address public gameContract = 0x0000000000000000000000000000000000000000;\r\n  address public player =0x0000000000000000000000000000000000000000;\r\n\r\n  mapping (address => uint256) balances;\r\n  mapping (address => mapping (address => uint256)) internal allowed;\r\n  event Transfered(address indexed from, address indexed to, uint256 value);\r\n\r\n  function Token() external {\r\n    require(msg.sender == adminAddr);\r\n    require(balances[msg.sender] == 0);\r\n    balances[msg.sender] = totalSupply;\r\n  }\r\n  \r\n  function setContAddr(address _gameContract) external {\r\n    require(msg.sender == adminAddr);\r\n    gameContract = _gameContract;\r\n  }\r\n\r\n  function adminSend(uint256 amount) external returns (bool) {\r\n    require(msg.sender == adminAddr);\r\n    require(balances[msg.sender] >= amount);\r\n    require(amount > 0);\r\n    balances[msg.sender] = balances[msg.sender].sub(amount);\r\n    balances[gameContract] = balances[gameContract].add(amount);\r\n    emit Transfered(msg.sender, gameContract, amount);\r\n    return true;\r\n  }\r\n\r\n//   ****************************************************************************\r\n//   ****************************************************************************\r\n//   ****************************************************************************\r\n\r\n  function login(address _player) external {\r\n    require(gameContract != 0x0000000000000000000000000000000000000000);\r\n    player = _player;\r\n  }\r\n  \r\n  function balanceOf(address account) external view returns (uint256 balance) {\r\n    return balances[account];\r\n  }\r\n  \r\n  function getTokens() external returns (bool) {\r\n    require(msg.sender == player);  \r\n    require(balances[msg.sender] == 0);\r\n    require(balances[gameContract] >= 10);\r\n    balances[gameContract] = balances[gameContract].sub(10);\r\n    balances[msg.sender] = balances[msg.sender].add(10);\r\n    emit Transfered(gameContract, msg.sender, 10);\r\n    return true;\r\n  }\r\n  \r\n  function betting(uint256 _betAmount) external returns (bool) {\r\n    require(msg.sender == player);\r\n    require(balances[msg.sender] >= _betAmount);\r\n    require(_betAmount > 0);\r\n    require(balances[gameContract] >= _betAmount.mul(10));\r\n    betAmount = _betAmount;\r\n    balances[msg.sender] = balances[msg.sender].sub(betAmount);\r\n    balances[gameContract] = balances[gameContract].add(betAmount);\r\n    emit Transfered(msg.sender, gameContract, betAmount);\r\n    return true;\r\n  }\r\n  \r\n  function reward() external returns (bool) {\r\n\r\n    require(msg.sender == player);\r\n    require(betAmount != 0);\r\n    \r\n    uint256 player_return;\r\n    \r\n    for (uint i = 0; i < 2; i++) {\r\n            uint randNum = uint(keccak256(abi.encodePacked(now, msg.sender, i))) % 6;\r\n            randNum = randNum.add(1);\r\n            if (i == 0) num1 = randNum;\r\n            else num2 = randNum;\r\n        }\r\n\r\n        if (num1 == num2) {\r\n            if (num1 == 6) {\r\n             result = 2;\r\n             player_return = betAmount.mul(10); \r\n            }\r\n            else {\r\n              result = 1;\r\n              player_return = betAmount.mul(5);\r\n            }\r\n        }\r\n        else result = 0;\r\n    \r\n    if (result == 0) false;\r\n    \r\n    require(balances[gameContract] >= player_return);\r\n    \r\n    balances[gameContract] = balances[gameContract].sub(player_return);\r\n    balances[msg.sender] = balances[msg.sender].add(player_return);\r\n    emit Transfered(gameContract, msg.sender, player_return);\r\n    betAmount = 0;\r\n    return true;\r\n  }\r\n  \r\n//   ****************************************************************************\r\n//   ****************************************************************************\r\n//   ****************************************************************************\r\n  \r\n  function transfer(address recipient, uint256 amount) external returns (bool) {\r\n    require(recipient != address(0));\r\n    require(amount <= balances[msg.sender]);\r\n\r\n    balances[msg.sender] = balances[msg.sender].sub(amount);\r\n    balances[recipient] = balances[recipient].add(amount);\r\n    emit Transfered(msg.sender, recipient, amount);\r\n    return true;\r\n  }\r\n  \r\n  function allowance(address owner, address spender) external view returns (uint256) {\r\n    return allowed[owner][spender];\r\n  }\r\n  \r\n  function transferFrom(address sender, address recipient, uint256 amount) external returns (bool) {\r\n    require(recipient != address(0));\r\n    require(amount <= balances[sender]);\r\n    require(amount <= allowed[sender][msg.sender]);\r\n\r\n    balances[sender] = balances[sender].sub(amount);\r\n    balances[recipient] = balances[recipient].add(amount);\r\n    allowed[sender][msg.sender] = allowed[sender][msg.sender].sub(amount);\r\n    return true;\r\n  }\r\n  \r\n  function approve(address spender, uint256 amount) public returns (bool) {\r\n    allowed[msg.sender][spender] = amount;\r\n    return true;\r\n  }\r\n}\r\n",
  "sourcePath": "C:/Users/Class3/Desktop/TieDraw_react/contracts/Dice.sol",
  "compiler": {
    "name": "solc",
    "version": "0.5.1+commit.c8a2cb62.Emscripten.clang"
  },
  "schemaVersion": "3.0.16",
  "updatedAt": "2019-09-25T01:42:27.981Z",
  "devdoc": {
    "methods": {}
  },
  "userdoc": {
    "methods": {}
  }
}