{
  "contractName": "GameRule",
  "abi": [
    {
      "constant": true,
      "inputs": [],
      "name": "num2",
      "outputs": [
        {
          "name": "",
          "type": "uint256"
        }
      ],
      "payable": false,
      "stateMutability": "view",
      "type": "function"
    },
    {
      "constant": true,
      "inputs": [],
      "name": "num1",
      "outputs": [
        {
          "name": "",
          "type": "uint256"
        }
      ],
      "payable": false,
      "stateMutability": "view",
      "type": "function"
    },
    {
      "constant": true,
      "inputs": [],
      "name": "result",
      "outputs": [
        {
          "name": "",
          "type": "uint256"
        }
      ],
      "payable": false,
      "stateMutability": "view",
      "type": "function"
    },
    {
      "constant": false,
      "inputs": [],
      "name": "game",
      "outputs": [
        {
          "name": "",
          "type": "uint256"
        }
      ],
      "payable": false,
      "stateMutability": "nonpayable",
      "type": "function"
    }
  ],
  "bytecode": "0x608060405234801561001057600080fd5b50610256806100206000396000f3fe60806040526004361061005c576000357c01000000000000000000000000000000000000000000000000000000009004806315d4266c146100615780633b9eac4b1461008c57806365372147146100b7578063c3fe3e28146100e2575b600080fd5b34801561006d57600080fd5b5061007661010d565b6040518082815260200191505060405180910390f35b34801561009857600080fd5b506100a1610113565b6040518082815260200191505060405180910390f35b3480156100c357600080fd5b506100cc610119565b6040518082815260200191505060405180910390f35b3480156100ee57600080fd5b506100f761011f565b6040518082815260200191505060405180910390f35b60025481565b60015481565b60005481565b600080600090505b60028110156101e75760006006423384604051602001808481526020018373ffffffffffffffffffffffffffffffffffffffff1673ffffffffffffffffffffffffffffffffffffffff166c01000000000000000000000000028152601401828152602001935050505060405160208183030381529060405280519060200120600190048115156101b357fe5b06905060018101905060008214156101d157806001819055506101d9565b806002819055505b508080600101915050610127565b50600254600154141561021a576006600154141561020c576002600081905550610215565b60016000819055505b610222565b600080819055505b60005490509056fea165627a7a723058204ee179f95eef6a8f97cf0a05a3ced087a7797baba8d31ad2bf8256b03604ae380029",
  "source": "pragma solidity >=0.5.0 <0.6.0;\r\n\r\ncontract GameRule {\r\n    uint public result;\r\n    uint public num1;\r\n    uint public num2;\r\n\r\n    function game() public returns (uint) {\r\n        for (uint i = 0; i < 2; i++) {\r\n            uint randNum = uint(keccak256(abi.encodePacked(now, msg.sender, i))) % 6;\r\n            randNum = randNum + 1;\r\n            if (i == 0) num1 = randNum;\r\n            else num2 = randNum;\r\n        }\r\n\r\n        if (num1 == num2) {\r\n            if (num1 == 6) result = 2;\r\n            else result = 1;\r\n        }\r\n        else result = 0;\r\n\r\n        return result;\r\n    }\r\n}",
  "sourcePath": "C:/Users/Class3/Desktop/TieDraw_react/contracts/GameRule.sol",
  "compiler": {
    "name": "solc",
    "version": "0.5.1+commit.c8a2cb62.Emscripten.clang"
  },
  "schemaVersion": "3.0.16",
  "updatedAt": "2019-09-24T05:16:53.168Z",
  "devdoc": {
    "methods": {}
  },
  "userdoc": {
    "methods": {}
  }
}