{
  "contractName": "OddEven",
  "abi": [
    {
      "constant": true,
      "inputs": [],
      "name": "OddEvenResult",
      "outputs": [
        {
          "name": "",
          "type": "uint256"
        }
      ],
      "payable": false,
      "stateMutability": "view",
      "type": "function"
    },
    {
      "constant": true,
      "inputs": [],
      "name": "GameOddEven",
      "outputs": [
        {
          "name": "",
          "type": "uint256"
        }
      ],
      "payable": false,
      "stateMutability": "view",
      "type": "function"
    },
    {
      "constant": false,
      "inputs": [
        {
          "name": "i",
          "type": "uint256"
        }
      ],
      "name": "OddEvenStart",
      "outputs": [],
      "payable": false,
      "stateMutability": "nonpayable",
      "type": "function"
    }
  ],
  "bytecode": "0x6080604052600560005534801561001557600080fd5b5061020a806100256000396000f3fe608060405260043610610051576000357c01000000000000000000000000000000000000000000000000000000009004806313304cc1146100565780633705b54114610091578063837e686b146100bc575b600080fd5b34801561006257600080fd5b5061008f6004803603602081101561007957600080fd5b81019080803590602001909291905050506100e7565b005b34801561009d57600080fd5b506100a66101d2565b6040518082815260200191505060405180910390f35b3480156100c857600080fd5b506100d16101d8565b6040518082815260200191505060405180910390f35b60008114806100f65750600181145b151561010157600080fd5b600060024233604051602001808381526020018273ffffffffffffffffffffffffffffffffffffffff1673ffffffffffffffffffffffffffffffffffffffff166c0100000000000000000000000002815260140192505050604051602081830303815290604052805190602001206001900481151561017c57fe5b069050600181019050600060028281151561019357fe5b0614156101a75760006001819055506101af565b600180819055505b6001548214156101c65760016000819055506101ce565b600080819055505b5050565b60005481565b6001548156fea165627a7a72305820e26cb57921fd7b959a4b4599157b3a7ed14e469f818d0aa77375d523cb4fd9550029",
  "source": "pragma solidity >=0.5.0 <0.6.0;\r\ncontract OddEven {\r\n    uint256 public OddEvenResult = 5;\r\n    uint256 public GameOddEven;\r\n\r\n    //홀짝게임, 값이 1이면 승리 값이 0이면 패배 처음에는 무조건 짝을 원하면 0을 홀을 원하면 1을 투입\r\n    function OddEvenStart(uint i) public {\r\n        require(i == 0 || i == 1);\r\n        uint256 randNum = uint256(keccak256(abi.encodePacked(now, msg.sender))) % 2;\r\n        randNum = randNum + 1;\r\n        if(randNum % 2 == 0) {\r\n            GameOddEven = 0;\r\n        }\r\n        else GameOddEven = 1;\r\n\r\n        if(i == GameOddEven) OddEvenResult = 1;\r\n        else OddEvenResult = 0;\r\n    }\r\n}",
  "sourcePath": "C:\\Users\\class3\\Desktop\\Tie-Draw\\contracts\\OddEven.sol",
  "compiler": {
    "name": "solc",
    "version": "0.5.1+commit.c8a2cb62.Emscripten.clang"
  },
  "schemaVersion": "3.0.12",
  "updatedAt": "2019-09-30T02:18:12.816Z",
  "devdoc": {
    "methods": {}
  },
  "userdoc": {
    "methods": {}
  }
}