{
  "contractName": "RockPaperScissors",
  "abi": [
    {
      "constant": true,
      "inputs": [],
      "name": "RPSResult",
      "outputs": [
        {
          "name": "",
          "type": "uint256"
        }
      ],
      "payable": false,
      "stateMutability": "view",
      "type": "function"
    },
    {
      "constant": true,
      "inputs": [],
      "name": "hand",
      "outputs": [
        {
          "name": "",
          "type": "uint256"
        }
      ],
      "payable": false,
      "stateMutability": "view",
      "type": "function"
    },
    {
      "constant": false,
      "inputs": [
        {
          "name": "RPS",
          "type": "uint256"
        }
      ],
      "name": "RPStart",
      "outputs": [],
      "payable": false,
      "stateMutability": "nonpayable",
      "type": "function"
    }
  ],
  "bytecode": "0x6080604052600560005534801561001557600080fd5b50610265806100256000396000f3fe608060405260043610610051576000357c0100000000000000000000000000000000000000000000000000000000900480632f8b1933146100565780638df6fbcc14610081578063b13c7a6f146100ac575b600080fd5b34801561006257600080fd5b5061006b6100e7565b6040518082815260200191505060405180910390f35b34801561008d57600080fd5b506100966100ed565b6040518082815260200191505060405180910390f35b3480156100b857600080fd5b506100e5600480360360208110156100cf57600080fd5b81019080803590602001909291905050506100f3565b005b60005481565b60015481565b8060001080156101035750600481105b151561010e57600080fd5b600060034233604051602001808381526020018273ffffffffffffffffffffffffffffffffffffffff1673ffffffffffffffffffffffffffffffffffffffff166c0100000000000000000000000002815260140192505050604051602081830303815290604052805190602001206001900481151561018957fe5b06905060018101905060018214156101c8576001805414806101ad57506002600154145b156101be57600080819055506101c7565b60016000819055505b5b60028214156101ff57600260015414806101e457506003600154145b156101f557600080819055506101fe565b60016000819055505b5b6003821415610235576003600154148061021a575060018054145b1561022b5760008081905550610234565b60016000819055505b5b505056fea165627a7a723058204430cdafb9646a7768efdd11b8f855a3bf3a66d8684fbe8a5892fe224125ce280029",
  "source": "pragma solidity >=0.5.0 <0.6.0;\r\ncontract RockPaperScissors {\r\n    uint256 public RPSResult = 5;\r\n    uint256 public hand;\r\n\r\n    // 값이 0이면 비기거나 진것 1이면 이긴 것\r\n    function RPStart(uint RPS) public {\r\n        require(0 < RPS && RPS < 4);\r\n        uint256 randNum = uint256(keccak256(abi.encodePacked(now, msg.sender))) % 3;\r\n        randNum = randNum + 1;\r\n        \r\n        if(RPS == 1) {\r\n            if(hand == 1 || hand == 2) RPSResult = 0;\r\n            else RPSResult = 1;\r\n        }\r\n\r\n        if(RPS == 2) {\r\n            if(hand == 2 || hand == 3) RPSResult = 0;\r\n            else RPSResult = 1;\r\n        }\r\n\r\n        if(RPS == 3) {\r\n            if(hand == 3 || hand == 1) RPSResult = 0;\r\n            else RPSResult = 1;\r\n        }\r\n\r\n    }\r\n}",
  "sourcePath": "C:\\Users\\class3\\Desktop\\Tie-Draw\\contracts\\RockPaperScissors.sol",
  "compiler": {
    "name": "solc",
    "version": "0.5.1+commit.c8a2cb62.Emscripten.clang"
  },
  "schemaVersion": "3.0.12",
  "updatedAt": "2019-09-30T02:18:12.820Z",
  "devdoc": {
    "methods": {}
  },
  "userdoc": {
    "methods": {}
  }
}